S02B0000433A2F55736572732F74656368342F4465736B746F702F4543453234332F70726F6A6563742F746F39
S2140000003400C10604FFFFDE34000001043D012178
S214000010404B000006FF3F0004FBFFDE150000DC3F
S214000020150140DC150280DC1503C0DC1504C0FF9A
S21400003074008004047681947400C0040477C19C24
S214000040170040940700408C1E0200884400800081
S214000050062600003A880988C0300000260E0010E8
S2140000603A880700170040940E0980184400C0180C
S2140000703A88C98807000021C03000001EFA3F10E9
S2140000803A88E1881500009C84008000061700006E
S2140000900400800006150000C03300001E04001097
S2140000A017000094440000841500009C060F000012
S2140000B0840800041E0B008C170000941500009C9A
S2140000C0440000841500009C0700408484088000DB
S2140000D01EFBBF88440000841500009CC4008000FE
S2140000E0060200007400000444530184170000DC7C
S2140000F0170140DC170280DC1703C0DC1704C0DFE2
S2140001000405C0DE3A2800F804FDFFDE150000DC1A
S214000110150140DC1502C0DF802600001E1E001000
S2140001207400000404760184740040040477418C53
S21400013017008088150080800408C000070040145F
S2140001401E02C0884400801006FC3F001500808018
S2140001507400000404780184150080804408C00000
S2140001601E0DC010740040040477418C1700008CEC
S214000170070000848402C0002606C0808026000097
S2140001801E0400101700008C440000841500008C2C
S21400019006F63F0080100000170000DC170140DC68
S2140001A01702C0DF0403C0DE3A2800F804FDFFDEB5
S2140001B0150000DC150140DC1502C0DF74000004E9
S2140001C00478018417000084C40040041E1B408489
S2140001D074000004047601841700408444000089FB
S2140001E0840840010047000026140010C4FFBF101A
S2140001F03AC84514040A0004160100143A8805801B
S2140002007400000404790184740040040476418C70
S2140002101700408C4400408C160180000606000043
S2140002200700008905000081440000844400408CDB
S214000230C4FFBF1006F83F0005000080170000DC72
S214000240170140DC1702C0DF0403C0DE3A2800F8BE
S214000250740080000476811017008010070080105C
S214000260C4E7BF103A2800F804FFFFDE150000DCE4
S214000270740080000476811017008010070080103C
S2140002802607001074000004047801841700008418
S21400029044008000260200143A880500060100008B
S2140002A044008000170000DC0401C0DE3A2800F895
S2140002B004FCFFDE150000DC150140DC150280DCC6
S2140002C01503C0DF3A8821203A8823000700008102
S2140002D03A882520C030000026050010A402408C75
S2140002E004F4BF943A88A38C4400008406F73F00C9
S2140002F03A880588170000DC170140DC170280DC0E
S2140003001703C0DF0404C0DE3A2800F804FFFFDE4F
S214000310150000DC040C000416040024440E00043F
S2140003201602008144008000060100003A8805009D
S214000330170000DC0401C0DE3A2800F804FEFFDEE9
S214000340150000DC150140DC7400000404B90184CB
S2140003500500008484024004261F4084040B4004E9
S214000360261F4084C40E4004261F4084C40A40044E
S214000370261F4084440B4004261F40848409400402
S214000380261F4084041F4004261F4084840A40041D
S214000390261F4084C40B4004261F408444094004A2
S2140003A0261F4084C4084004261F4084040A4004D4
S2140003B0261F4084440A4004261F4084040F40043D
S2140003C0261F4084840F4004261F4084440F4004A8
S2140003D0261F40840620000004058000062000003A
S2140003E044018000061E000084018000061C0000F8
S2140003F0C4018000061A00000402800006180000EF
S21400040044028000061600008402800006140000E5
S214000410C4028000061200000403800006100000DC
S21400042044038000060E000084038000060C0000D3
S214000430C4038000060A00000404800006080000CA
S21400044044048000060600008404800006040000C1
S214000450C4048000060200003A880500060000007A
S214000460170000DC170140DC0402C0DE3A2800F862
S21400047004FEFFDE150000DC150140DC3A88230090
S2140004803A8823890700008C1E0240813A88058836
S214000490060400004400408C0700008C1EF93F80D4
S2140004A03A880500170000DC170140DC0402C0DEB5
S2140004B03A2800F83A8805200700C01026020018DF
S2140004C04400801006FC3F003AC805113A2800F8A0
S2140004D007008020260500100700C0281E03C01055
S2140004E0440000214400402906F93F003AC8C510E0
S2080004F03A2800F8A9
S2140004F422616263313233220000000000000000F3
S21400050400000000000000000000000000000000E2
S21400051400000000000000000000000000000000D2
S21400052400000000000000000000000000000000C2
S21400053400000000000000000000000000000000B2
S2140104F40000000000000000000000004C4554000D
S2140105045052494E54004946005448454E00454C05
S214010514534500464F5200544F004E455854004729
S2140105244F544F00474F5355420052455455524E6F
S2140105340043414C4C0052454D005045454B00503C
S2140105444F4B4500454E44000000000000050100E5
S2140105541500000004050100160000000A0501004C
S214010564170000000D050100180000001205010027
S21401057419000000170501001A0000001B05010000
S2140105841B0000001E0501001C00000023050100DD
S2140105941D000000280501001E0000002E050100B4
S2140105A41F00000035050100200000003A05010087
S2140105B4210000003E050100220000004305010061
S2140105C42300000048050100240000004C0501003A
S2140105D400000000F4040000F4040000030000001E
S2140105E40000000000000000000000000000000001
S2140105F400000000000000000000000000000000F1
S21401060400000000000000004C4554005052494EC2
S21401061454004946005448454E00454C534500464F
S2140106244F5200544F004E45585400474F544F0004
S214010634474F5355420052455455524E0043414C80
S2140106444C0052454D005045454B00504F4B45001C
S214010654454E4400000000000C0601001500000091
S214010664100601001600000016060100170000001F
S21401067419060100180000001E06010019000000FA
S214010684230601001A000000270601001B000000D3
S2140106942A0601001C0000002F0601001D000000B0
S2140106A4340601001E0000003A0601001F00000087
S2140106B4410601002000000046060100210000005A
S2140106C44A060100220000004F0601002300000034
S2140106D45406010024000000580601000000000032
S2100106E4F4040000F40400000300000011
S804000000FB
